:100000000C9434000C9451000C9451000C94510049
:100010000C9451000C9451000C9451000C9451001C
:100020000C9451000C9451000C9451000C9451000C
:100030000C9451000C9451000C9451000C945100FC
:100040000C9451000C9451000C9451000C945100EC
:100050000C9451000C9451000C9451000C945100DC
:100060000C9451000C94510011241FBECFEFD8E026
:10007000DEBFCDBF11E0A0E0B1E0E2E4F6E002C0F7
:1000800005900D92AE30B107D9F721E0AEE0B1E0B6
:1000900001C01D92A431B207E1F70E9493000C94B5
:1000A0001F030C94000080E480937C0087E8809319
:1000B0007A000895ECE7F0E09081907F9083908142
:1000C000892B8083EAE7F0E08081806480838081EF
:1000D00086FDFDCF8091780090917900089584B5D8
:1000E000806884BD84B5816084BD85B5826085BD2E
:1000F000E0E8F0E08081806A808380818160808395
:10010000E1E8F0E0808182608083E0EBF0E08081D4
:1001100080688083808181608083E1EBF0E0808172
:1001200082608083089580E091E090931101809334
:1001300010010E9437010E9453000E946F008EE060
:1001400084B985B18E6085B98CE68AB98BB18C662D
:100150008BB90F2EF8E8CF2ED12CF02D0F2EF3EB0C
:10016000EF2EF12CF02D0AE810E00F2EF4EB2F2EDD
:10017000312CF02D81E00E945A00EC0180E00E94B9
:100180005A00BC0180E090E00E94FB0120E030E0DA
:1001900040E85AE30E948E024B015C01BE0180E000
:1001A00090E00E94FB0120E030E040E85AE30E942A
:1001B0008E022B013C0120E030E040E05FE30E9432
:1001C0008902181614F45A9801C05A9A20E030E0B7
:1001D00040E05FE3C301B2010E9458012B013C01E2
:1001E0009B01AC01C501B4010E948E0220E030E009
:1001F00040E054E40E948E020E94C501AB017723C7
:1002000024F444275527461B570B47BD242F352F71
:10021000F60131832083F7014083A501940160E05A
:1002200070E080E89FE30E945801A30192010E94C0
:100230008E0220E030E040E054E40E948E020E94F2
:10024000C501AB01772324F444275527461B570BE0
:1002500048BD242F352FF80131832083F1014083DD
:100260008FE39CE90197F1F700C0000083CF109263
:10027000C50087E68093C400E0ECF0E080818D7FCC
:10028000808386E08093C20088E18093C100089556
:10029000CF93C82F8A3019F48DE00E944801E0EC1A
:1002A000F0E0808185FFFDCFC093C600CF91089517
:1002B0005058BB27AA270E9470010C944F020E943D
:1002C000410238F00E94480220F039F49F3F19F4AF
:1002D00026F40C943E020EF4E095E7FB0C943802F1
:1002E000E92F0E94600258F3BA1762077307840768
:1002F000950720F079F4A6F50C9482020EF4E095AF
:100300000B2EBA2FA02D0B01B90190010C01CA01CF
:10031000A0011124FF27591B99F0593F50F4503E7A
:1003200068F11A16F040A22F232F342F4427585F6C
:10033000F3CF469537952795A795F0405395C9F784
:100340007EF41F16BA0B620B730B840BBAF091503C
:10035000A1F0FF0FBB1F661F771F881FC2F70EC0DB
:10036000BA0F621F731F841F48F4879577956795AE
:10037000B795F7959E3F08F0B0CF9395880F08F09A
:100380009927EE0F9795879508950E94CC01689460
:10039000B1110C94830208950E94680288F09F575F
:1003A00098F0B92F9927B751B0F0E1F0660F771F99
:1003B000881F991F1AF0BA95C9F714C0B13091F08F
:1003C0000E948202B1E008950C948202672F782F78
:1003D0008827B85F39F0B93FCCF386957795679554
:1003E000B395D9F73EF490958095709561957F4FC0
:1003F0008F4F9F4F0895E89409C097FB3EF4909566
:100400008095709561957F4F8F4F9F4F9923A9F0ED
:10041000F92F96E9BB279395F6958795779567957C
:10042000B795F111F8CFFAF4BB0F11F460FF1BC0C0
:100430006F5F7F4F8F4F9F4F16C0882311F096E953
:1004400011C0772321F09EE8872F762F05C0662301
:1004500071F096E8862F70E060E02AF09A95660FBA
:10046000771F881FDAF7880F9695879597F9089573
:1004700097F99F6780E870E060E008959FEF80EC57
:10048000089500240A9416161706180609060895FA
:1004900000240A9412161306140605060895092E60
:1004A0000394000C11F4882352F0BB0F40F4BF2BCF
:1004B00011F460FF04C06F5F7F4F8F4F9F4F08950F
:1004C00057FD9058440F551F59F05F3F71F0479505
:1004D000880F97FB991F61F09F3F79F087950895EA
:1004E000121613061406551FF2CF4695F1DF08C009
:1004F000161617061806991FF1CF86957105610526
:1005000008940895E894BB2766277727CB0197F9CD
:1005100008950E94FB0208F48FEF08950E94A10243
:100520000C944F020E94410238F00E94480220F0D1
:10053000952311F00C9438020C943E0211240C9473
:1005400083020E94600270F3959FC1F3950F50E003
:10055000551F629FF001729FBB27F00DB11D639F75
:10056000AA27F00DB11DAA1F649F6627B00DA11D1B
:10057000661F829F2227B00DA11D621F739FB00DC1
:10058000A11D621F839FA00D611D221F749F332731
:10059000A00D611D231F849F600D211D822F762FCA
:1005A0006A2F11249F5750409AF0F1F088234AF0A7
:1005B000EE0FFF1FBB1F661F771F881F9150504013
:1005C000A9F79E3F510580F00C9438020C948302E9
:1005D0005F3FE4F3983ED4F3869577956795B7959A
:1005E000F795E7959F5FC1F7FE2B880F911D9695B4
:1005F000879597F90895990F0008550FAA0BE0E821
:10060000FEEF16161706E807F907C0F012161306D4
:10061000E407F50798F0621B730B840B950B39F414
:100620000A2661F0232B242B252B21F408950A267A
:1006300009F4A140A6958FEF811D811D0895F894BE
:02064000FFCFEA
:0E06420000000002000000004801000000005F
:00000001FF
